:02005000AD07FA
:10005200E4FB7E007480A803088006CEA2E713CEDC
:1000620013D8F8FFEDF582EF558224FF92B4D2B691
:0A007200C2B60BBB08DCD2B5C2B564
:01007C002261
:10007D00AA07AF05120050AF02A8077480088002CE
:10008D00C313D8FCF4F5807F017E0012009F7580AC
:02009D00FF2240
:10000300C2B6C2B57DF67C00E4FF12007D7DA97CFB
:10001300007F0112007D7D897C007F0212007DE458
:10002300FDFC7F0312007D7DEF7C007F0412007DC9
:100033007D147C007F0512007D7D1B7C007F0612F2
:0D004300007D7DE07C007F0712007D80B70E
:10009F00EF1FAC0670011E4C600A7D027CEFDCFE88
:0400AF00DDFC80EC08
:0100B300222A
:030000000200B447
:0C00B400787FE4F6D8FD75810702000398
:00000001FF
