:020C2900410088
:1009E400120B8E7BFF7A0C79297D017F01120B0596
:1009F400120C1D120BBEEF60FA120C238F30120C76
:100A0400268F2FE530FB7A007518027D017F0212D4
:100A14000A61E52FFB7A007518027D057F02120A30
:030A24006180D01E
:100B7900EF1FAC0670011E4C600A7D027CEFDCFEA3
:040B8900DDFC80EC23
:010B8D002245
:060BA200C2A58F80D2A75E
:080BA8007F027EEFDEFEDFFCA0
:010BB0002222
:0A0BFA00C2A6120BA2C2A7020BA8AC
:100B2800CFCDCFCECCCE12098F7C007D0A12098F93
:040B3800ED2430FF79
:0A0B3C00D2A6120BA2C2A7020BA85A
:100B6300AE07BE0104ED148006BE0209ED243F4426
:060B730080FF120BFA22C4
:100B8E007F38120BFA7F0C120BFA7F06120BFA7FCC
:040B9E0001020BFA4B
:0A0C0400AC03120B63AF04020B3CBB
:060B05008B148A1589160D
:100B0B00120B63E4FDAB14AA15A9168D8275830035
:0C0B1B00120950FF6006120B3C0D80E92F
:010B270022AB
:0C0AD2007F0AEA24FFFDE434FFFC7E00F4
:080ADE008E198F1A8C1B8D1C70
:100AE6007F017E00E4FBEBC3951CE51B6480F87474
:0E0AF6008098500AAC19AD1A12097D0B80E8E9
:010B040022CE
:040B46008A268B2749
:100B4A00120B63AA28EAD39400400D120AD2AC26EB
:080B5A00AD27120B281A80EDF3
:010B62002270
:100A2700120B63C3EA64809480400B7F2B120B3C4C
:100A37008A228B23800E7F2D120B3CC3E49BF52368
:100A4700E49AF522AA21EAD39400400D120AD2AC07
:090A570022AD23120B281A80EDD8
:010A60002273
:040A61008A168B174F
:100A6500120B63AA18EAD3940040297F10120AD406
:100A7500AC16AD17CFCDCFCECCCE12098FEF540F1C
:100A8500FEC3940AEE5004243080022437FF120B73
:040A95003C1A80D1B6
:010A9900223A
:040A9A008A2B8B2CEC
:100A9E00120B63AA2DEAD394004028EA24FFFDE44A
:100AAE0034FFFC7F027E00120ADEAC2BAD2CCFCDC4
:100ABE00CFCECCCE12098FEF54012430FF120B3C57
:030ACE001A80D2B9
:010AD1002202
:0B0BE400C288C289D2A8D2AFD2B822CA
:0D0BB1005389F0E4F58AF58CC28DC28C22C8
:0B0BEF00AD07AC068C8CAF058F8A228E
:090C0E00AF8CEFFEAD8AEDFF2270
:060C1700EF24FF928C2285
:060C1D00120BB1020BE412
:0D0BBE00E50F6006E4F50F7F01227F0022A5
:0D0BCB00E50D6006E4F50D7F01227F00229C
:030C2300AF0C22F1
:030C2600AF0B22EF
:03000300020800F0
:10080000C0E0C0F0C083C082C0D075D000C000C0BE
:1008100001C002C003C004C005C006C007E50870DF
:100820000CFFFE120BEF7F01120C17804CE50864E1
:1008300001704C120C0E8E098F0AE4FFFE120BEFB2
:10084000D3E50A94A5E509942E4013E50A948DE5B5
:10085000099432500975A000750802020935D3E5E4
:100860000A948CE50994264010E50A9474E50994ED
:100870002A5006750D0102092D750801020935E59A
:100880000864026003020935120C0E8E098F0AE417
:10089000FFFE120BEFD3E50A94F4E5099401402C16
:1008A000E50A94DCE50994055022E50E1313135470
:1008B0001F2410F8C000E6FFE50E5407FE7401A8DF
:1008C00006088002C333D8FCF45F8034D3E50A9471
:1008D000DCE50994054030E50A94C4E50994095023
:1008E00026E50E131313541F2410F8C000E6FFE58D
:1008F0000E5407FE7401A806088002C333D8FC4FCB
:10090000D000F6050E800975A001750E007508016E
:10091000E50EB42020750E00E511F4B5100FE513B7
:10092000F4B5120985100C85120B750F01E4FF1246
:100930000C17750800D007D006D005D004D003D01E
:1009400002D001D000D0D0D082D083D0F0D0E0321D
:03000000020BD818
:0C0BD800787FE4F6D8FD7581300209E456
:10095000BB010CE58229F582E5833AF583E022505C
:1009600006E92582F8E622BBFE06E92582F8E222A6
:0D097000E58229F582E5833AF583E49322C0
:10097D00EF8DF0A4A8F0CF8CF0A428CE8DF0A42E8E
:02098D00FE2248
:10098F00BC000BBE0029EF8DF084FFADF022E4CC4C
:10099F00F875F008EF2FFFEE33FEEC33FCEE9DEC15
:1009AF00984005FCEE9DFE0FD5F0E9E4CEFD22ED5B
:1009BF00F8F5F0EE8420D21CFEADF075F008EF2FA5
:1009CF00FFED33FD4007985006D5F0F222C398FD96
:0509DF000FD5F0EA2233
:00000001FF
