:100B6800414444522020434D44202020204E554DDE
:100B7800003030202020203030202020202030302D
:020B880030003B
:1009F100E4F5A0120BF07BFF7A0B79687D017F0192
:100A0100120B457BFF7A0B79797D017F02120B4531
:100A1100120C82120C23EF7006120C30EF60F412EC
:100A21000C888F34120C8B8F33E534FB7A007515EB
:100A3100027D017F02120AA1E533FB7A00751502DE
:100A41007D077F02120AA1E533B415021532E533A1
:100A5100B409020532E532FB7A007515037D0E7F7C
:060A610002120BA880AD9B
:100BDB00EF1FAC0670011E4C600A7D027CEFDCFE41
:040BEB00DDFC80ECC1
:010BEF0022E3
:060C1400C2A58F80D2A7EB
:080C1A007F027EEFDEFEDFFC2D
:010C220022AF
:0A0C5F00C2A6120C14C2A7020C1A60
:100B8A00CFCDCFCECCCE12099C7C007D0A12099C17
:040B9A00ED2430FF17
:0A0B9E00D2A6120C14C2A7020C1A12
:100BC500AE07BE0104ED148006BE0209ED243F44C4
:060BD50080FF120C5F22FC
:100BF0007F38120C5F7F0C120C5F7F06120C5F7F38
:040C000001020C5F82
:0A0C6900AC03120BC5AF04020B9E92
:060B45008B118A128913D6
:100B4B00120BC5E4FDAB11AA12A9138D827583009C
:0C0B5B0012095DFF6006120B9E0D80E980
:010B6700226B
:0C0B12007F0AEA24FFFDE434FFFC7E00B3
:080B1E008E168F178C188D193B
:100B26007F017E00E4FBEBC39519E5186480F87439
:0E0B36008098500AAC16AD1712098A0B80E8A1
:010B4400228E
:040BA8008A138B140D
:100BAC00120BC5AA15EAD39400400D120B12AC130C
:080BBC00AD14120B8A1A80ED42
:010BC400220E
:100A6700120BC5C3EA64809480400B7F2B120B9E48
:100A77008A2B8B2C800E7F2D120B9EC3E49BF52CAB
:100A8700E49AF52BAA2AEAD39400400D120B12AC74
:090A97002BAD2C120B8A1A80ED24
:010AA0002233
:040AA1008A138B1415
:100AA500120BC5AA15EAD3940040297F10120B1426
:100AB500AC13AD14CFCDCFCECCCE12099CEF540FD5
:100AC500FEC3940AEE5004243080022437FF120B33
:040AD5009E1A80D114
:010AD90022FA
:040ADA008A2F8B30A4
:100ADE00120BC5AA31EAD394004028EA24FFFDE4A4
:100AEE0034FFFC7F027E00120B1EAC2FAD30CFCD3B
:100AFE00CFCECCCE12099CEF54012430FF120B9EA8
:030B0E001A80D278
:010B110022C1
:0B0C4900C288C289D2A8D2AFD2B82264
:100C04005389F0438901E4F58AF58CC28DC28C22A4
:0B0C5400AD07AC068C8CAF058F8A2228
:090C7300AF8CEFFEAD8AEDFF220B
:060C7C00EF24FF928C2220
:060C8200120C04020C49F3
:0D0C2300E5216006E4F5217F01227F00221B
:0D0C3000E51F6006E4F51F7F01227F002212
:030C8800AF1E227A
:030C8B00AF1D2278
:03000300020800F0
:10080000C0E0C0F0C083C082C0D075D000C000C0BE
:1008100001C002C003C004C005C006C007E51A70CD
:100820000CFFFE120C547F01120C7C8049E51A6407
:10083000017049120C738E1B8F1CE4FFFE120C54C6
:10084000D3E51C94A5E51B942E4010E51C948DE582
:100850001B94325006751A02020942D3E51C948C8F
:10086000E51B94264010E51C9474E51B942A500661
:10087000751F0102093A751A01020942E51A64025C
:100880006003020942120C738E1B8F1CE4FFFE12E0
:100890000C54751507AB1CAA1B7D037F02120BA815
:1008A000C3E51C9414E51B9402402FE51C94FCE561
:1008B0001B9405502575A001E520131313541F2424
:1008C00022F8C000E6FFE5205407FE7401A80608E0
:1008D0008002C333D8FCF45F8034C3E51C9426E562
:1008E0001B94064030E51C940EE51B940A5026E547
:1008F00020131313541F2422F8C000E6FFE52054F0
:1009000007FE7401A806088002C333D8FC4FD0004C
:10091000F60520800805A0752000751A01E520B4B1
:100920002020752000E523F4B5220FE525F4B52439
:100930000985221E85241D752101E4FF120C7C759A
:100940001A00D007D006D005D004D003D002D001C1
:0D095000D000D0D0D082D083D0F0D0E032E3
:03000000020C3DB2
:0C0C3D00787FE4F6D8FD7581340209F1DF
:10095D00BB010CE58229F582E5833AF583E022504F
:10096D0006E92582F8E622BBFE06E92582F8E22299
:0D097D00E58229F582E5833AF583E49322B3
:10098A00EF8DF0A4A8F0CF8CF0A428CE8DF0A42E81
:02099A00FE223B
:10099C00BC000BBE0029EF8DF084FFADF022E4CC3F
:1009AC00F875F008EF2FFFEE33FEEC33FCEE9DEC08
:1009BC00984005FCEE9DFE0FD5F0E9E4CEFD22ED4E
:1009CC00F8F5F0EE8420D21CFEADF075F008EF2F98
:1009DC00FFED33FD4007985006D5F0F222C398FD89
:0509EC000FD5F0EA2226
:00000001FF
