:100B5400414444522020434D44202020204E554DF2
:100B64000030302020202030302020202020303041
:020B740030004F
:1009E000120BDC7BFF7A0B79547D017F01120B31F6
:1009F0007BFF7A0B79657D017F02120B31120C6E41
:100A0000120C0FEF7006120C1CEF60F4120C748FB6
:100A10002B120C778F2AE52BFB7A007518027D01CB
:100A20007F02120A8DE52AFB7A007518027D077F86
:100A300002120A8DE52AB415021529E52AB4090225
:100A40000529E529FB7A007518037D0E7F02120B3C
:030A50009480ADE2
:100BC700EF1FAC0670011E4C600A7D027CEFDCFE55
:040BD700DDFC80ECD5
:010BDB0022F7
:060C0000C2A58F80D2A7FF
:080C06007F027EEFDEFEDFFC41
:010C0E0022C3
:0A0C4B00C2A6120C00C2A7020C069C
:100B7600CFCDCFCECCCE12098B7C007D0A12098B4D
:040B8600ED2430FF2B
:0A0B8A00D2A6120C00C2A7020C064E
:100BB100AE07BE0104ED148006BE0209ED243F44D8
:060BC10080FF120C4B2224
:100BDC007F38120C4B7F0C120C4B7F06120C4B7F88
:040BEC0001020C4BAB
:0A0C5500AC03120BB1AF04020B8ACE
:060B31008B148A158916E1
:100B3700120BB1E4FDAB14AA15A9168D82758300BB
:0C0B470012094CFF6006120B8A0D80E9B9
:010B5300227F
:0C0AFE007F0AEA24FFFDE434FFFC7E00C8
:080B0A008E198F1A8C1B8D1C43
:100B12007F017E00E4FBEBC3951CE51B6480F87447
:0E0B22008098500AAC19AD1A1209790B80E8C0
:010B300022A2
:040B94008A168B171B
:100B9800120BB1AA18EAD39400400D120AFEAC1643
:080BA800AD17120B761A80ED67
:010BB0002222
:100A5300120BB1C3EA64809480400B7F2B120B8A84
:100A63008A228B23800E7F2D120B8AC3E49BF523EE
:100A7300E49AF522AA21EAD39400400D120AFEACAF
:090A830022AD23120B761A80ED5E
:010A8C002247
:040A8D008A168B1723
:100A9100120BB1AA18EAD3940040297F10120B005F
:100AA100AC16AD17CFCDCFCECCCE12098BEF540FF4
:100AB100FEC3940AEE5004243080022437FF120B47
:040AC1008A1A80D13C
:010AC500220E
:040AC6008A268B27CA
:100ACA00120BB1AA28EAD394004028EA24FFFDE4D5
:100ADA0034FFFC7F027E00120B0AAC26AD27CFCD75
:100AEA00CFCECCCE12098BEF54012430FF120B8AE1
:030AFA001A80D28D
:010AFD0022D6
:0B0C3500D288C289D2A8D2AFD2B82268
:100BF0005389F0438901E4F58AF58CC28DC28C22B9
:0B0C4000AD07AC068C8CAF058F8A223C
:090C5F00AF8CEFFEAD8AEDFF221F
:060C6800EF24FF928C2234
:060C6E00120BF0020C3530
:0D0C0F00E50F6006E4F50F7F01227F002253
:0D0C1C00E50D6006E4F50D7F01227F00224A
:030C7400AF0C22A0
:030C7700AF0B229E
:03000300020800F0
:10080000C0E0C0F0C083C082C0D075D000C000C0BE
:1008100001C002C003C004C005C006C007E50870DF
:100820000CFFFE120C407F01120C688049E5086441
:10083000017049120C5F8E098F0AE4FFFE120C4012
:10084000D3E50A94A6E509942E4010E50A948EE5B6
:100850000994325006750802020931D3E50A948CD6
:10086000E50994264010E50A9474E509942A500697
:10087000750D01020929750801020931E5086402B4
:100880006003020931120C5F8E098F0AE4FFFE1229
:100890000C40C3E50A9414E5099402402CE50A943F
:1008A000FCE50994055022E50E131313541F241080
:1008B000F8C000E6FFE50E5407FE7401A8060880A4
:1008C00002C333D8FCF45F8034C3E50A9426E509FB
:1008D00094064030E50A940EE509940A5026E50E88
:1008E000131313541F2410F8C000E6FFE50E54073D
:1008F000FE7401A806088002C333D8FC4FD000F66E
:10090000050E8006750E00750801E50EC3942040A3
:1009100020750E00E511F4B5100FE513F4B51209BA
:1009200085100C85120B750F01E4FF120C68750819
:1009300000D007D006D005D004D003D002D001D01B
:0C09400000D0D0D082D083D0F0D0E032C4
:03000000020C29C6
:0C0C2900787FE4F6D8FD75812B0209E00D
:10094C00BB010CE58229F582E5833AF583E0225060
:10095C0006E92582F8E622BBFE06E92582F8E222AA
:0D096C00E58229F582E5833AF583E49322C4
:10097900EF8DF0A4A8F0CF8CF0A428CE8DF0A42E92
:02098900FE224C
:10098B00BC000BBE0029EF8DF084FFADF022E4CC50
:10099B00F875F008EF2FFFEE33FEEC33FCEE9DEC19
:1009AB00984005FCEE9DFE0FD5F0E9E4CEFD22ED5F
:1009BB00F8F5F0EE8420D21CFEADF075F008EF2FA9
:1009CB00FFED33FD4007985006D5F0F222C398FD9A
:0509DB000FD5F0EA2237
:00000001FF
