:100B8A00414444522020434D44202020204E554DBC
:100B9A00003030202020203030202020202030300B
:020BAA00300019
:100A1300E4F5A0120C127BFF7A0B798A7D017F012A
:100A2300120B677BFF7A0B799B7D017F02120B67A9
:100A3300120CA1120C42EF7006120C4FEF60F4126D
:100A43000CA78F34120CAA8F33E534FB7A0075158B
:100A5300027D017F02120AC3E533FB7A007515029A
:100A63007D077F02120AC3E533B415021532E5335D
:100A7300B409020532E532FB7A007515037D0E7F5A
:060A830002120BCA80AD57
:100BFD00EF1FAC0670011E4C600A7D027CEFDCFE1F
:040C0D00DDFC80EC9E
:010C110022C0
:060C2600C2A58F80D2A7D9
:080C2C007F027EEFDEFEDFFC1B
:010C3400229D
:0A0C7E00C2A6120C26C2A7020C2C1D
:100BAC00CFCDCFCECCCE1209A87C007D0A1209A8DD
:040BBC00ED2430FFF5
:0A0BC000D2A6120C26C2A7020C2CCC
:100BE700AE07BE0104ED148006BE0209ED243F44A2
:060BF70080FF120C7E22BB
:100C12007F38120C7E7F0C120C7E7F06120C7E7FB8
:040C220001020C7E41
:0A0C8800AC03120BE7AF04020BC02F
:060B67008B118A128913B4
:100B6D00120BE7E4FDAB11AA12A9138D8275830058
:0C0B7D00120969FF6006120BC00D80E930
:010B89002249
:0C0B34007F0AEA24FFFDE434FFFC7E0091
:080B40008E168F178C188D1919
:100B48007F017E00E4FBEBC39519E5186480F87417
:0E0B58008098500AAC16AD171209960B80E873
:010B6600226C
:040BCA008A138B14EB
:100BCE00120BE7AA15EAD39400400D120B34AC13A6
:080BDE00AD14120BAC1A80EDFE
:010BE60022EC
:100A8900120BE7C3EA64809480400B7F2B120BC0E2
:100A99008A2B8B2C800E7F2D120BC0C3E49BF52C67
:100AA900E49AF52BAA2AEAD39400400D120B34AC30
:090AB9002BAD2C120BAC1A80EDE0
:010AC2002211
:040AC3008A138B14F3
:100AC700120BE7AA15EAD3940040297F10120B36C0
:100AD700AC13AD14CFCDCFCECCCE1209A8EF540FA7
:100AE700FEC3940AEE5004243080022437FF120B11
:040AF700C01A80D1D0
:010AFB0022D8
:040AFC008A2F8B3082
:100B0000120BE7AA31EAD394004028EA24FFFDE45F
:100B100034FFFC7F027E00120B40AC2FAD30CFCDF6
:100B2000CFCECCCE1209A8EF54012430FF120BC057
:030B30001A80D256
:010B3300229F
:0B0C6800C288C289D2A8D2AFD2B82245
:0D0C35005389F0E4F58AF58CC28DC28C2243
:0B0C7300AD07AC068C8CAF058F8A2209
:090C9200AF8CEFFEAD8AEDFF22EC
:060C9B00EF24FF928C2201
:060CA100120C35020C6884
:0D0C4200E5216006E4F5217F01227F0022FC
:0D0C4F00E51F6006E4F51F7F01227F0022F3
:030CA700AF1E225B
:030CAA00AF1D2259
:03000300020800F0
:10080000C0E0C0F0C083C082C0D075D000C000C0BE
:1008100001C002C003C004C005C006C007E51A70CD
:100820000CFFFE120C737F01120C9B8049E51A64C9
:10083000017049120C928E1B8F1CE4FFFE120C7388
:10084000D3E51C94A5E51B942E4010E51C948DE582
:100850001B94325006751A0202094ED3E51C948C83
:10086000E51B94264010E51C9474E51B942A500661
:10087000751F01020946751A0102094EE51A640244
:10088000600302094E120C928E1B8F1CE4FFFE12B5
:100890000C73751507AB1CAA1B7D037F02120BCAD4
:1008A000C3E51B94004039AE1BAF1CE4FCFD7BA0EC
:1008B0007A867901F8D31209FD402575A001E5205B
:1008C000131313541F2422F8C000E6FFE520540739
:1008D000FE7401A806088002C333D8FCF45F803A96
:1008E000C3E51B9400403AAE1BAF1CE4FCFD7BA0AB
:1008F0007A867901F8D31209FD4026E520131313F7
:10090000541F2422F8C000E6FFE5205407FE7401BE
:10091000A806088002C333D8FC4FD000F60520801B
:100920000805A0752000751A01E520B42020752067
:1009300000E523F4B5220FE525F4B5240985221E30
:1009400085241D752101E4FF120C9B751A00D00748
:10095000D006D005D004D003D002D001D000D0D032
:09096000D082D083D0F0D0E03247
:03000000020C5C93
:0C0C5C00787FE4F6D8FD758134020A139D
:10096900BB010CE58229F582E5833AF583E0225043
:1009790006E92582F8E622BBFE06E92582F8E2228D
:0D098900E58229F582E5833AF583E49322A7
:10099600EF8DF0A4A8F0CF8CF0A428CE8DF0A42E75
:0209A600FE222F
:1009A800BC000BBE0029EF8DF084FFADF022E4CC33
:1009B800F875F008EF2FFFEE33FEEC33FCEE9DECFC
:1009C800984005FCEE9DFE0FD5F0E9E4CEFD22ED42
:1009D800F8F5F0EE8420D21CFEADF075F008EF2F8C
:1009E800FFED33FD4007985006D5F0F222C398FD7D
:0509F8000FD5F0EA221A
:1009FD00EB9FF5F0EA9E42F0E99D42F0EC6480C871
:060A0D0064809845F02210
:00000001FF
