:100097004D792065647520656D61696C3A00323170
:1000A7003034303630383034407374752E687262AD
:1000B7007573742E6564752E636E002020202020D2
:1000C7002020202020202020202020202020202029
:1000D7002020202020202020202020202020202019
:0300E700202000D6
:09027800EF1F70011E144E600E10
:0C0281007523027524EFD524FDD523FA67
:03028D0080E922E3
:1000EA00E4F5221202907BFF7A0079977D017F0165
:1000FA0012021A7BFF7A0079A57D017F0212021A89
:10010A007BFF7A0079C27D017F0112021A7F1812E1
:10011A0002CF7F8A7E021202780522E52275F02834
:10012A0084E5F004FD7BFF7A0079977F0112021AB9
:02013A0080CE75
:0602B400C2A58F80D2A755
:0802BA007F027EEFDEFEDFFC97
:0102C2002219
:0A02CF00C2A61202B4C2A70202BACE
:10023D00CFCDCFCECCCE1200427C007D0A12004233
:04024D00ED2430FF6D
:0A025100D2A61202B4C2A70202BA3C
:100290007F381202CF7F0C1202CF7F061202CF7F6F
:0402A000010202CF86
:1002A400EDBF0103148002243F4480FF1202CF22D9
:0A02D900AC031202A4AF04020251AC
:06021A008B238A248925D4
:100220001202A4E4FDAB23AA24A9258D82758300C4
:0C023000120003FF60061202510D80E96D
:01023C00229F
:0C01E7007F0AEA24FFFDE434FFFC7E00E8
:0801F3008E1E8F1F8C208D2150
:1001FB007F017E00E4FBEBC39521E5206480F8745E
:0E020B008098500AAC1EAD1F1200300B80E828
:0102190022C2
:04025B008A118B1267
:10025F001202A4AA13EAD39400400D1201E7AC11C5
:08026F00AD1212023D1A80EDF0
:010277002264
:10013C001202A4C3EA64809480400B7F2B120251FC
:10014C008A0D8B0E800E7F2D120251C3E49BF50E8F
:10015C00E49AF50DAA0CEAD39400400D1201E7AC19
:09016C000DAD0E12023D1A80EDEA
:010175002267
:040176008A168B1743
:10017A001202A4AA18EAD3940040297F101201E9B6
:10018A00AC16AD17CFCDCFCECCCE120042EF540F66
:10019A00FEC3940AEE5004243080022437FF120270
:0401AA00511A80D195
:0101AE00222E
:0401AF008A1B8B1C00
:1001B3001202A4AA1DEAD394004028EA24FFFDE416
:1001C30034FFFC7F027E001201F3AC1BAD1CCFCDCC
:1001D300CFCECCCE120042EF54012430FF12025195
:0301E3001A80D2AD
:0101E60022F6
:030000000202C336
:0C02C300787FE4F6D8FD7581250200EA82
:10000300BB010CE58229F582E5833AF583E02250B2
:1000130006E92582F8E622BBFE06E92582F8E222FC
:0D002300E58229F582E5833AF583E4932216
:10003000EF8DF0A4A8F0CF8CF0A428CE8DF0A42EE4
:02004000FE229E
:10004200BC000BBE0029EF8DF084FFADF022E4CCA2
:10005200F875F008EF2FFFEE33FEEC33FCEE9DEC6B
:10006200984005FCEE9DFE0FD5F0E9E4CEFD22EDB1
:10007200F8F5F0EE8420D21CFEADF075F008EF2FFB
:10008200FFED33FD4007985006D5F0F222C398FDEC
:050092000FD5F0EA2289
:00000001FF
