:0B0B040041444A204E54432052470059
:10090200120AD57BFF7A0B79047D017F01120A4C12
:100912007F9C1208948E228F23750C03AB23AA228C
:100922007D017F02120A8D7F0A7E00120AC07FDCDF
:100932001208948E228F23750C03AB23AA227D0505
:100942007F02120A8D7F0A7E00120AC07FAC120853
:10095200948E228F23750C03AB23AA227D097F027A
:0C096200120A8D7F0A7E00120AC080A4D9
:02089400AD07AE
:10089600E4F508F509C2B6C2B5FB74807E00A8036C
:1008A600088006CEA2E713CE13D8F8FFEDF582EF47
:1008B600558224FF92B4D2B6C2B60BBB08DCE4FB69
:1008C600D2B6C2B630B714E47E80A803088005CE3F
:1008D600C313CE13D8F94209EE42080BBB10E1D27E
:1008E600B5ED30E306E508FF7E0022E508C4F854BE
:0B08F600F0C868FEE509C4540F48FF7D
:0109010022D3
:100AC000EF1FAC0670011E4C600A7D027CEFDCFE5D
:040AD000DDFC80ECDD
:010AD40022FF
:060AE900C2A58F80D2A718
:080AEF007F027EEFDEFEDFFC5A
:010AF70022DC
:0A0B0F00C2A6120AE9C2A7020AEF0B
:100A6F00CFCDCFCECCCE12083F7C007D0A12083FEF
:040A7F00ED2430FF33
:0A0A8300D2A6120AE9C2A7020AEF88
:100AAA00AE07BE0104ED148006BE0209ED243F44E0
:060ABA0080FF120B0F2269
:100AD5007F38120B0F7F0C120B0F7F06120B0F7F47
:040AE50001020B0FF0
:0A0B1900AC03120AAAAF04020A831B
:060A4C008B088A09890AEB
:100A5200120AAAE4FDAB08AA09A90A8D82758300CD
:0C0A6200120800FF6006120A830D80E9F4
:010A6E002265
:0C0A19007F0AEA24FFFDE434FFFC7E00AD
:080A25008E0D8F0E8C0F8D1059
:100A2D007F017E00E4FBEBC39510E50F6480F87445
:0E0A3D008098500AAC0DAD0E12082D0B80E80B
:010A4B002288
:040A8D008A0A8B0B3B
:100A9100120AAAAA0CEAD39400400D120A19AC0A50
:080AA100AD0B120A6F1A80ED83
:010AA900222A
:10096E00120AAAC3EA64809480400B7F2B120A837A
:10097E008A168B17800E7F2D120A83C3E49BF51700
:10098E00E49AF516AA15EAD39400400D120A19AC92
:09099E0016AD17120A6F1A80ED64
:0109A700222D
:0409A8008A1A8B1B01
:1009AC00120AAAAA1CEAD3940040297F10120A1B2F
:1009BC00AC1AAD1BCFCDCFCECCCE12083FEF540F1F
:1009CC00FEC3940AEE5004243080022437FF120A2E
:0409DC00831A80D129
:0109E00022F4
:0409E1008A1F8B20BE
:1009E500120AAAAA21EAD394004028EA24FFFDE4CA
:1009F50034FFFC7F027E00120A25AC1FAD20CFCD4F
:100A0500CFCECCCE12083FEF54012430FF120A831B
:030A15001A80D272
:010A180022BB
:03000000020AF8F9
:0C0AF800787FE4F6D8FD75812302090226
:10080000BB010CE58229F582E5833AF583E02250AD
:1008100006E92582F8E622BBFE06E92582F8E222F7
:0D082000E58229F582E5833AF583E4932211
:10082D00EF8DF0A4A8F0CF8CF0A428CE8DF0A42EDF
:02083D00FE2299
:10083F00BC000BBE0029EF8DF084FFADF022E4CC9D
:10084F00F875F008EF2FFFEE33FEEC33FCEE9DEC66
:10085F00984005FCEE9DFE0FD5F0E9E4CEFD22EDAC
:10086F00F8F5F0EE8420D21CFEADF075F008EF2FF6
:10087F00FFED33FD4007985006D5F0F222C398FDE7
:05088F000FD5F0EA2284
:00000001FF
