:1009D800120BC9120BB7120B78EF604B120BC68FB4
:1009E80021E521B41603E4F522E521B40C037522B0
:1009F80001E521B41803752202E521B45E037522CE
:100A080003E5227004FF120BCCE522B401057F3206
:100A1800120BCCE522B402057F4B120BCCE522B4B5
:100A280003057F64120BCCE522FD7C007F01120ACE
:030A38003B80A35D
:100B4600EF1FAC0670011E4C600A7D027CEFDCFED6
:040B5600DDFC80EC56
:010B5A002278
:0C0B6B000A143F065B4F666D7D077F6F2C
:100A3B00EF14B408005054900A5075F003A4C5830A
:100A4B0025F0C58373020A68020A6C020A70020A57
:100A5B0074020A78020A80020A88020A90D2A480E1
:100A6B000ED2A48012D2A48016D2A4801AC2A4D211
:100A7B00A3D2A28016C2A4D2A3C2A2800EC2A4C2C9
:100A8B00A3D2A28006C2A4C2A3C2A274142DF8E6FC
:030A9B00F58022C1
:100B02005389F0438901758B9C758DFFC28FD28EFC
:070B1200D2ABD2AFC2BB223F
:100B190053890F438901C28DD28C758CFC758A1853
:070B2900D2A9D2AFC2B9222C
:050BB100E4AF20F52077
:010BB600221C
:100B3000E4FF20B1010F20B0027F0220B2027F0348
:050B400020B3027F0458
:010B4500228D
:100A9E00851E1F120B308F1EE51FB40107E51E7059
:100AAE0003752001E51FB40207E51E7003752002D1
:100ABE00E51FB40307E51E7003752003E51FB4049C
:080ACE0007E51E70037520040A
:010AD60022FD
:0B0B9200D288C289D2A8D2AFD2B8220C
:060BB700120B5B020B9221
:0D0B7800E50F6006E4F50F7F01227F0022EB
:0D0B8500E50D6006E4F50D7F01227F0022E2
:030BC300AF0C2252
:030BC600AF0B2250
:03000300020800F0
:10080000C0E0C0F0C083C082C0D075D000C000C0BE
:1008100001C002C003C004C005C006C007E50870DF
:100820000CFFFE120B9D7F01120BBD8049E5086491
:10083000017049120BA88E098F0AE4FFFE120B9D6E
:10084000D3E50A94A6E509942E4010E50A948EE5B6
:100850000994325006750802020931D3E50A948CD6
:10086000E50994264010E50A9474E509942A500697
:10087000750D01020929750801020931E5086402B4
:100880006003020931120BA88E098F0AE4FFFE12E1
:100890000B9DC3E50A9414E5099402402CE50A94E3
:1008A000FCE50994055022E50E131313541F241080
:1008B000F8C000E6FFE50E5407FE7401A8060880A4
:1008C00002C333D8FCF45F8034C3E50A9426E509FB
:1008D00094064030E50A940EE509940A5026E50E88
:1008E000131313541F2410F8C000E6FFE50E54073D
:1008F000FE7401A806088002C333D8FC4FD000F66E
:10090000050E8006750E00750801E50EC3942040A3
:1009100020750E00E511F4B5100FE513F4B51209BA
:1009200085100C85120B750F01E4FF120BBD7508C5
:1009300000D007D006D005D004D003D002D001D01B
:0C09400000D0D0D082D083D0F0D0E032C4
:100B5B005389F0438901E4F58AF58CC28DC28C224E
:0B0B9D00AD07AC068C8CAF058F8A22E0
:090BA800AF8CEFFEAD8AEDFF22D7
:060BBD00EF24FF928C22E0
:030BC900020B021A
:030BCC008F232252
:03001B00020AD7FF
:100AD700C0E0C0F0C0D0758DFF758B9C0524E52460
:100AE70075F0648485F024E524C395235004D290DF
:0B0AF7008002C290D0D0D0F0D0E032DE
:0300000002094CA6
:0C094C00787FE4F6D8FD75812402099341
:100958000209D8E493A3F8E493A34003F68001F2D4
:1009680008DFF48029E493A3F85407240CC8C333A0
:10097800C4540F4420C8834004F456800146F6DF6F
:10098800E4800B0102040810204080900B6BE47E89
:10099800019360BCA3FF543F30E509541FFEE49364
:1009A800A360010ECF54C025E060A840B8E493A32B
:1009B800FAE493A3F8E493A3C8C582C8CAC583CA56
:1009C800F0A3C8C582C8CAC583CADFE9DEE780BE0E
:010B7700007D
:00000001FF
