:1009DB00120BC6120BB4120B68EF604B120BC38FCA
:1009EB0021E521B41603E4F522E521B40C037522AD
:1009FB0001E521B41803752202E521B45E037522CB
:100A0B0003E5227004FF120BC9E522B401057F3206
:100A1B00120BC9E522B402057F4B120BC9E522B4B8
:100A2B0003057F64120BC9E522FD7C007F01120ACE
:030A3B003E80A357
:100B3200EF1FAC0670011E4C600A7D027CEFDCFEEA
:040B4200DDFC80EC6A
:010B4600228C
:0C0B5B000A143F065B4F666D7D077F6F3C
:100A3E00EF14B408005054900A5375F003A4C58304
:100A4E0025F0C58373020A6B020A6F020A73020A4B
:100A5E0077020A7B020A83020A8B020A93D2A480CF
:100A6E000ED2A48012D2A48016D2A4801AC2A4D20E
:100A7E00A3D2A28016C2A4D2A3C2A2800EC2A4C2C6
:100A8E00A3D2A28006C2A4C2A3C2A274142DF8E6F9
:030A9E00F58022BE
:100B47005389F0758B9C758DFFC28FD28ED2ABD235
:040B5700AFC2BB224C
:100B050053890F438901C28DD28C758CFC758A1867
:070B1500D2A9D2AFC2B92240
:050BAE00E4AF20F5207A
:010BB300221F
:100B1C00E4FF20B1010F20B0027F0220B2027F035C
:050B2C0020B3027F046C
:010B310022A1
:100AA100851E1F120B1C8F1EE51FB40107E51E706A
:100AB10003752001E51FB40207E51E7003752002CE
:100AC100E51FB40307E51E7003752003E51FB40499
:080AD10007E51E700375200407
:010AD90022FA
:0B0B8F00C288C289D2A8D2AFD2B8221F
:060BB400120B82020B8F00
:0D0B6800E50F6006E4F50F7F01227F0022FB
:0D0B7500E50D6006E4F50D7F01227F0022F2
:030BC000AF0C2255
:030BC300AF0B2253
:03000300020800F0
:10080000C0E0C0F0C083C082C0D075D000C000C0BE
:1008100001C002C003C004C005C006C007E50870DF
:100820000CFFFE120B9A7F01120BBA804CE5086494
:1008300001704C120BA58E098F0AE4FFFE120B9A71
:10084000D3E50A94A5E509942E4013E50A948DE5B5
:10085000099432500975A000750802020934D3E5E5
:100860000A948CE50994264010E50A9474E50994ED
:100870002A5006750D0102092C750801020934E59C
:100880000864026003020934120BA58E098F0AE482
:10089000FFFE120B9AD3E50A9414E5099402402C4A
:1008A000E50A94FCE50994055022E50E1313135450
:1008B0001F2410F8C000E6FFE50E5407FE7401A8DF
:1008C00006088002C333D8FCF45F8034D3E50A9471
:1008D00025E50994064030E50A940DE509940A508F
:1008E00026E50E131313541F2410F8C000E6FFE58D
:1008F0000E5407FE7401A806088002C333D8FC4FCB
:10090000D000F6050E800805A0750E00750801E5FB
:100910000EB42020750E00E511F4B5100FE513F4A8
:10092000B5120985100C85120B750F01E4FF120B2F
:10093000BA750800D007D006D005D004D003D00285
:0F094000D001D000D0D0D082D083D0F0D0E03220
:0D0B82005389F0E4F58AF58CC28DC28C22F7
:0B0B9A00AD07AC068C8CAF058F8A22E3
:090BA500AF8CEFFEAD8AEDFF22DA
:060BBA00EF24FF928C22E3
:030BC600020B47D8
:030BC9008F232255
:03001B00020ADAFC
:100ADA00C0E0C0F0C0D0758DFF758B9C0524E5245D
:100AEA0075F0648485F024E524C395235004D290DC
:0B0AFA008002C290D0D0D0F0D0E032DB
:0300000002094FA3
:0C094F00787FE4F6D8FD7581240209963B
:10095B000209DBE493A3F8E493A34003F68001F2CE
:10096B0008DFF48029E493A3F85407240CC8C3339D
:10097B00C4540F4420C8834004F456800146F6DF6C
:10098B00E4800B0102040810204080900B5BE47E96
:10099B00019360BCA3FF543F30E509541FFEE49361
:1009AB00A360010ECF54C025E060A840B8E493A328
:1009BB00FAE493A3F8E493A3C8C582C8CAC583CA53
:1009CB00F0A3C8C582C8CAC583CADFE9DEE780BE0B
:010B6700008D
:00000001FF
