:1000030018183D5A982828285A5A3C1818281808AE
:1000130030183C1C1818180830987C181828180831
:1000230010183C3C1828280830183C3C1824244459
:1000330030183C3818282444180C1E1C0C14244473
:100043000030183C1C38284400C060F0F0304844AD
:100053000030183C1C382844180C1E1C0C14244473
:100063000030183C1C38284400C060F0F03048448D
:100073000030183C1C382844180C1E1C0C14244453
:100083000030183C1C38284400C060F0F03048446D
:100093000030183C1C382844180C1E1C0C14244433
:0800A300000000000000000055
:1000AB00E4F509F50A12015BE4F508E5082509906A
:1000BB00000393FD7C00AF081201180508E508C387
:1000CB00940840E7050AE50AD3942840DBE4F50AD7
:1000DB0074082509F509D394A040CDE4F50980C82F
:10013A00EF1FAC0670011E4C600A7D027CEFDCFEEC
:04014A00DDFC80EC6C
:01014E00228E
:05015B00C2B6C2B5228E
:0200EB00AD075F
:1000ED00E4FB7E007480A803088006CEA2E713CE41
:1000FD0013D8F8FFEDF582EF558224FF92B4D2B6F6
:0A010D00C2B60BBB08DCD2B5C2B5C8
:0101170022C5
:10011800AA07AF051200EBAF02A807748008800297
:10012800C313D8FCF4F5807F017E0012013A758074
:02013800FF22A4
:0300000002014FAB
:0C014F00787FE4F6D8FD75810A0200AB51
:00000001FF
