:1009E20020200020202D20202D20200020203A2011
:0509F200203A20200066
:1006760012055DE518FB3395E0FA750C027D017FE6
:1006860001120998E519FB3395E0FA750C027D0411
:100696007F01120998E51AFB3395E0FA750C027D85
:1006A600077F01120998E51BFB3395E0FA750C02EA
:1006B6007D017F02120998E51CFB3395E0FA750C63
:1006C600027D047F02120998E51DFB3395E0FA7559
:0906D6000C027D077F0202099865
:10000E00E524B4020B0521E52175F0068485F02167
:10001E00E5246403600302011974182521F806D340
:10002E00E518648094E34003E4F518D3E519648081
:10003E00948C4003751901E51964016023E5196478
:10004E0003601DE51964056017E51964076011E585
:10005E00196408600BE519640A6005E519B40C17FC
:10006E00C3E51A648094815003751A1FD3E51A6490
:10007E0080949F4072806DE51964046011E51964E7
:10008E0006600BE51964096005E519B40B17C3E5A5
:10009E001A648094815003751A1ED3E51A648094F5
:1000AE009E4044803FE5196402703CE51875F004EB
:1000BE001204A7AFF0EF7017C3E51A648094815055
:1000CE0003751A1DD3E51A6480949D401A8015C3DA
:1000DE00E51A648094815003751A1CD3E51A648066
:1000EE00949C4003751A01D3E51B648094974003DA
:1000FE00E4F51BD3E51C648094BB4003E4F51CD3EC
:10010E00E51D648094BB4003E4F51DE524640460A2
:10011E000302021474182521F816C3E5186480949E
:10012E00805003751863C3E519648094815003757C
:10013E00190CE51964016023E5196403601DE519C6
:10014E0064056017E51964076011E5196408600B12
:10015E00E519640A6005E519B40C17C3E51A648045
:10016E0094815003751A1FD3E51A6480949F4072D0
:10017E00806DE51964046011E5196406600BE519DC
:10018E0064096005E519B40B17C3E51A6480948100
:10019E005003751A1ED3E51A6480949E4044803F26
:1001AE00E5196402703CE51875F0041204A7AFF06F
:1001BE00EF7017C3E51A648094815003751A1DD32E
:1001CE00E51A6480949D401A8015C3E51A648094E4
:1001DE00815003751A1CD3E51A6480949C400375F4
:1001EE001A01C3E51B648094805003751B17C3E589
:1001FE001C648094805003751C3BC3E51D64809481
:10020E00805003751D3BE5217014E523B4010F7B6F
:10021E00FF7A0979E27D017F011209578011E518F5
:10022E00FB3395E0FA750C027D017F01120998E50A
:10023E0021B40114E523B4010F7BFF7A0979E27D25
:10024E00047F011209578011E519FB3395E0FA7509
:10025E000C027D047F01120998E521B40214E523F6
:10026E00B4010F7BFF7A0979E27D077F01120957EE
:10027E008011E51AFB3395E0FA750C027D077F01BC
:10028E00120998E521B40314E523B4010F7BFF7A1C
:10029E000979E27D017F021209578011E51BFB33BC
:1002AE0095E0FA750C027D017F02120998E521B4E2
:1002BE000414E523B4010F7BFF7A0979E27D047FF4
:1002CE00021209578011E51CFB3395E0FA750C02FA
:1002DE007D047F02120998E521B40514E523B401CB
:1002EE000F7BFF7A0979E27D077F02120957801191
:1002FE00E51DFB3395E0FA750C027D077F021209AE
:10030E0098E521FB7A00750C027D0A7F021209988E
:0F031E00E523FB7A00750C027D0D7F0202099822
:10079C001209B5120A0C1200037BFF7A0979E57D68
:1007AC00017F011209577BFF7A0979EE7D017F02E7
:1007BC0012095712032D1206DF8F24E524B40114FD
:1007CC00E5227005752201800BE522B40106E4F5E3
:1007DC002212032DE5221460080470DA12067680CA
:0607EC00D512000E80D0C2
:03000B0002087A6E
:09087A00C0E0C0D075D000C00739
:10088300758CFC758A180520E5207002051FC3943A
:10089300F4E51F94014012751F00752000E52370D5
:0908A300047F0180027F008F2315
:0708AC00D007D0D0D0E032EC
:060A2000C2A58F80D2A7E1
:080A26007F027EEFDEFEDFFC23
:010A2E0022A5
:0A0A2F00C2A6120A20C2A7020A267E
:10097A00CFCDCFCECCCE1205087C007D0A12050859
:04098A00ED2430FF29
:0A098E00D2A6120A20C2A7020A2610
:1009CC00AE07BE0104ED148006BE0209ED243F44BF
:0609DC0080FF120A2F2229
:100A0C007F38120A2F7F0C120A2F7F06120A2F7FB3
:040A1C0001020A2F9A
:0A0A3900AC031209CCAF0402098ED1
:060957008B088A09890AE1
:10095D001209CCE4FDAB08AA09A90A8D82758300A2
:0C096D001204C9FF600612098E0D80E91B
:01097900225B
:0C0924007F0AEA24FFFDE434FFFC7E00A3
:080930008E0D8F0E8C0F8D104F
:100938007F017E00E4FBEBC39510E50F6480F8743B
:0E0948008098500AAC0DAD0E1204F60B80E83C
:01095600227E
:040998008A0A8B0B31
:10099C001209CCAA0CEAD39400400D120924AC0A1B
:0809AC00AD0B12097A1A80ED6F
:0109B4002220
:100840001209CCC3EA64809480400B7F2B12098E7E
:100850008A168B17800E7F2D12098EC3E49BF51725
:10086000E49AF516AA15EAD39400400D120924ACB7
:0908700016AD1712097A1A80ED89
:01087900225C
:0408B3008A278B28DD
:1008B7001209CCAA29EAD3940040297F10120926ED
:1008C700AC27AD28CFCDCFCECCCE120508EF540F35
:1008D700FEC3940AEE5004243080022437FF120925
:0408E7008E1A80D114
:0108EB0022EA
:0408EC008A2C8B2D9A
:1008F0001209CCAA2EEAD394004028EA24FFFDE492
:1009000034FFFC7F027E00120930AC2CAD2DCFCD20
:10091000CFCECCCE120508EF54012430FF12098E41
:030920001A80D268
:0109230022B1
:090A430007181703070909000256
:05000300C2B5C2B622E7
:050740002DFDEE3CFC64
:060745008C088D09AB07D2
:10074B00D2B5E4FD7E007401A805088005C333CE45
:10075B0033CED8F9FFEBF582EF558224FF92B4D25A
:10076B00B6C2B60DBD08DDE4FD7E007401A8050818
:10077B008005C333CE33CED8F9FFE5085EFEE5091D
:10078B005F4E24FF92B4D2B6C2B60DBD08DBC2B524
:01079B00223B
:0207F200AD0751
:1007F400E4F9430501D2B5FB7E007401A803088027
:1008040005C333CE33CED8F9FFEDF582EF558224FC
:10081400FF92B4C2B6D2B60BBB08DDE4FBD2B6C2BB
:10082400B630B40DA8037401088002C333D8FC4267
:0B083400010BBB08E8C2B5C2B4AF0165
:01083F002296
:10032D00E4FDFC7F8E120745E51875F00A1204A74F
:10033D00FF3395E0FEEFC4F8540FC868FFEEC454C8
:10034D00F048FEE51875F00A1204A7ADF0ED3395EF
:10035D00E0FCEF7F8C120740E51975F00A1204A737
:10036D00FF3395E0FEEFC4F8540FC868FFEEC45498
:10037D00F048FEE51975F00A1204A7ADF0ED3395BE
:10038D00E0FCEF7F88120740E51A75F00A1204A70A
:10039D00FF3395E0FEEFC4F8540FC868FFEEC45468
:1003AD00F048FEE51A75F00A1204A7ADF0ED33958D
:1003BD00E0FCEF2DFDEE3CFC7F86120745E51B753D
:1003CD00F00A1204A7FF3395E0FEEFC4F8540FC8EE
:1003DD0068FFEEC454F048FEE51B75F00A1204A741
:1003ED00ADF0ED3395E0FCEF2DFDEE3CFC7F84127E
:1003FD000745E51C75F00A1204A7FF3395E0FEEFE3
:10040D00C4F8540FC868FFEEC454F048FEE51C75DF
:10041D00F00A1204A7ADF0ED3395E0FCEF2DFDEEE3
:10042D003CFC7F82120745E51D75F00A1204A7FFFB
:10043D003395E0FEEFC4F8540FC868FFEEC454F0D6
:10044D0048FEE51D75F00A1204A7ADF0ED3395E0F9
:10045D00FCEF2DFDEE3CFC7F80120745E51E75F08F
:10046D000A1204A7FF3395E0FEEFC4F8540FC868D5
:10047D00FFEEC454F048FEE51E75F00A1204A7AD58
:10048D00F0ED3395E0FCEF2DFDEE3CFC7F8A12077D
:0A049D00457D807C007F8E0207453C
:10055D007F8C1207F2EFC4540F75F00AA4FEEF540E
:10056D000F2EF5187F881207F2EFC4540F75F00A9D
:10057D00A4FEEF540F2EF5197F861207F2EFC45427
:10058D000F75F00AA4FEEF540F2EF51A7F84120793
:10059D00F2EFC4540F75F00AA4FEEF540F2EF51BA5
:1005AD007F821207F2EFC4540F75F00AA4FEEF54C8
:1005BD000F2EF51C7F801207F2EFC4540F75F00A51
:1005CD00A4FEEF540F2EF51D7F8A1207F2EFC454CF
:0C05DD000F75F00AA4FEEF540F2EF51E5F
:0105E90022EF
:1009F700EF1FAC0670011E4C600A7D027CEFDCFE27
:040A0700DDFC80ECA6
:010A0B0022C8
:1006DF00E4F50820B1137F14FE1209F730B1FD7F46
:1006EF00147E001209F775080120B0147F147E00E4
:1006FF001209F730B0FD7F147E001209F77508025A
:10070F0020B2147F147E001209F730B2FD7F147EE1
:10071F00001209F775080320B3147F147E00120925
:10072F00F730B3FD7F147E001209F7750804AF0888
:01073F002297
:1009B5005389F0438901758A18758CFCC28DD28CD8
:0709C500D2A9D2AFC2B92292
:030000000205EA0C
:0C05EA00787FE4F6D8FD75812E02063102
:1004A700C2D530F707B2D563F0FF05F030E70CB2DD
:1004B700D5F4048463F0FF05F080018430D502F49D
:0204C70004220D
:1004C900BB010CE58229F582E5833AF583E02250E8
:1004D90006E92582F8E622BBFE06E92582F8E22232
:0D04E900E58229F582E5833AF583E493224C
:1004F600EF8DF0A4A8F0CF8CF0A428CE8DF0A42E1A
:02050600FE22D3
:10050800BC000BBE0029EF8DF084FFADF022E4CCD7
:10051800F875F008EF2FFFEE33FEEC33FCEE9DECA0
:10052800984005FCEE9DFE0FD5F0E9E4CEFD22EDE6
:10053800F8F5F0EE8420D21CFEADF075F008EF2F30
:10054800FFED33FD4007985006D5F0F222C398FD21
:050558000FD5F0EA22BE
:1005F60002079CE493A3F8E493A34003F68001F278
:1006060008DFF48029E493A3F85407240CC8C33305
:10061600C4540F4420C8834004F456800146F6DFD4
:10062600E4800B0102040810204080900A43E47E17
:10063600019360BCA3FF543F30E509541FFEE493C9
:10064600A360010ECF54C025E060A840B8E493A390
:10065600FAE493A3F8E493A3C8C582C8CAC583CABB
:10066600F0A3C8C582C8CAC583CADFE9DEE780BE73
:010A4C0000A9
:00000001FF
