:1008000012088B750832E4F50A850A087F0A7E0013
:10081000120876050AE50AC3946440ED750A64E59A
:100820000AD3940040E0850A087F0A7E0012087609
:04083000150A80EB3A
:03000B00020834B4
:10083400C0E0C0F0C0D0758CFF758A9C0509E5093D
:1008440075F0648485F009E509C395085004D2A1C4
:0B0854008002C2A1D0D0D0F0D0E03272
:10087600EF1FAC0670011E4C600A7D027CEFDCFEA9
:04088600DDFC80EC29
:01088A00224B
:10088B005389F0758A9C758CFFC28DD28CD2A9D2FC
:04089B00AFC2B9220D
:10085F005389F0438901C28DD28C758CFC758A182F
:07086F00D2A9D2AFC2B922E9
:0300000002089F54
:0C089F00787FE4F6D8FD75810A0208009D
:00000001FF
