:10015300E4FDFC7F0112008F1200F28F12E51260A2
:10016300F77F327E00120177E512FD7C007F0112DA
:04017300008F80E495
:10019200EF1FAC0670011E4C600A7D027CEFDCFE94
:0401A200DDFC80EC14
:0101A6002236
:1000F200E4F51520B1137F14FE12019230B1FD7F99
:10010200147E0012019275150120B0147F147E0036
:1001120012019230B0FD7F147E0012019275150219
:1001220020B2147F147E0012019230B2FD7F147E41
:100132000012019275150320B3147F147E00120180
:100142009230B3FD7F147E00120192751504AF1533
:01015200228A
:0C01A7000A083F065B4F666D7D077F6F06
:10008F00EF14B4080050549000A475F003A4C58376
:10009F0025F0C583730200BC0200C00200C4020039
:1000AF00C80200CC0200D40200DC0200E4D2A4801B
:1000BF000ED2A48012D2A48016D2A4801AC2A4D2C7
:1000CF00A3D2A28016C2A4D2A3C2A2800EC2A4C27F
:1000DF00A3D2A28006C2A4C2A3C2A274082DF8E6BE
:0300EF00F5802277
:0501B400007FE3DFFE07
:0101B9002223
:04017700AD07AC061E
:10017B00E4FBFAC3EB9DEA9C500CB2A51201B40B45
:06018B00BB00010A80ED3B
:01019100224B
:03000000020003F8
:0C000300787FE4F6D8FD75811502004AF4
:10000F00020153E493A3F8E493A34003F68001F2B3
:10001F0008DFF48029E493A3F85407240CC8C333F2
:10002F00C4540F4420C8834004F456800146F6DFC1
:10003F00E4800B01020408102040809001A7E47EA9
:10004F00019360BCA3FF543F30E509541FFEE493B6
:10005F00A360010ECF54C025E060A840B8E493A37D
:10006F00FAE493A3F8E493A3C8C582C8CAC583CAA8
:10007F00F0A3C8C582C8CAC583CADFE9DEE780BE60
:0101B300004B
:00000001FF
