:10000E001200001204EF8F13E513B4010CE5127009
:10001E00047F0180027F008F12E513B40207E4F51E
:10002E0011F50EF510E51364037033E510FD7C0039
:10003E00E4FF1203AC7F057E00120478E50EFD7C12
:10004E00007F011203AC7F057E00120478E511FDDE
:10005E007C007F021203AC7F057E00120478E5134C
:10006E00B40415E4FF12032C8F107F0112032C8FA2
:10007E000E7F0212032C8F11E51075F00A84FD7CA1
:10008E00007F01120000E51075F00A84E5F0FD7C9A
:10009E00007F021200007D0B7C007F03120000E542
:1000AE000E75F00A84FD7C007F04120000E50E75CB
:1000BE00F00A84E5F0FD7C007F051200007D0B7CCC
:1000CE00007F06120000E51175F00A84FD7C007FAA
:1000DE0007120000E51175F00A84E5F0FD7C007F43
:0700EE0008120000020011DE
:10038500E51260220511E511C394644019E4F511E5
:10039500050EE50E943C400EE4F50E0510E51094AF
:0703A5003C4003E4F51022C7
:03000B0002018966
:10018900C0E0C0F0C083C082C0D075D000C000C03C
:0D01990001C002C003C004C005C006C007BD
:1001A600758CFC758A180509E50970020508C39463
:1001B60014E50894004009750800750900120288C4
:1001C600050BE50B7002050AC39402E50A9400408C
:1001D60009750A00750B00120000050DE50D700289
:1001E600050CC3940AE50C94004009750C00750DC6
:0401F600001203856B
:1001FA00D007D006D005D004D003D002D001D00059
:0B020A00D0D0D082D083D0F0D0E03202
:10047800EF1FAC0670011E4C600A7D027CEFDCFEAB
:04048800DDFC80EC2B
:01048C00224D
:0604A100C2A58F80D2A766
:0804A7007F027EEFDEFEDFFCA8
:0104AF00222A
:0A04C800C2A61204A1C2A70204A7F5
:1003F300CFCDCFCECCCE1201347C007D0A12013496
:04040300ED2430FFB5
:0A040700D2A61204A1C2A70204A7A6
:10044C00AE07BE0104ED148006BE0209ED243F4444
:06045C0080FF1204C8221B
:10048D007F381204C87F0C1204C87F061204C87F7F
:04049D00010204C88C
:0A04D200AC0312044CAF040204074F
:0603D0008B2E8A2F8930FC
:1003D60012044CE4FDAB2EAA2FA9308D8275830042
:0C03E6001200F5FF60061204070D80E90C
:0103F20022E8
:0C02F9007F0AEA24FFFDE434FFFC7E00D5
:080305008E2A8F2B8C2C8D2D0C
:10030D007F017E00E4FBEBC3952DE52C6480F87432
:0E031D008098500AAC2AAD2B1201220B80E80A
:01032B0022AF
:04042F008A1D8B1E79
:1004330012044CAA1FEAD39400400D1202F9AC1D1A
:08044300AD1E1203F31A80ED57
:01044B00228E
:1002150012044CC3EA64809480400B7F2B120407C0
:100225008A198B1A800E7F2D120407C3E49BF51AD9
:10023500E49AF519AA18EAD39400400D1202F9AC14
:0902450019AD1A1203F31A80ED41
:01024E00228D
:04024F008A228B2351
:1002530012044CAA24EAD3940040297F101202FB13
:10026300AC22AD23CFCDCFCECCCE120134EF540F81
:10027300FEC3940AEE5004243080022437FF120494
:04028300071A80D105
:010287002254
:0402C1008A278B28D5
:1002C50012044CAA29EAD394004028EA24FFFDE44D
:1002D50034FFFC7F027E00120305AC27AD28CFCD8D
:1002E500CFCECCCE120134EF54012430FF120407D7
:0302F5001A80D29A
:0102F80022E3
:0504EF00E4AF33F5331A
:0104F40022E5
:10046200E4FF20B1010F20B0027F0220B2027F031D
:0504720020B3027F042D
:010477002262
:100288008531321204628F31E532B40107E53170ED
:1002980003753301E532B40207E5317003753302A3
:1002A800E532B40307E5317003753303E532B4046E
:0802B80007E531700375330402
:0102C000221B
:0904E600D2A0D2A1C2A0C2A12241
:07000300C2A0D2A1D2A0228D
:02035C00AD07EB
:10035E00E4FB7E007480A803088006CEA2E713CECD
:10036E0013D8F8FFEDF582EF558224FF92A0D2A1AB
:06037E00C2A10BBB08DC6C
:010384002256
:10041100E4FFD2A0FED2A130A00DA806748008800E
:0D04210002C313D8FC4207C2A10EBE08E8BA
:01042E0022AB
:0A04DC00EF24FF92A0D2A1C2A122DA
:0B04B000D2A0D2A1A2A0E433FFC2A1A1
:0104BB00221E
:1003AC008F348C358D361204E67FA012035C120458
:1003BC00B0AF3412035C1204B0AF3612035C1204FB
:0403CC00B002000378
:02032C008F340C
:10032E001204E67FA012035C1204B0AF3412035C19
:10033E001204B01204E67FA112035C1204B0120480
:0D034E00118F357F011204DC120003AF3562
:01035B00227F
:030000000204BC3B
:0C04BC00787FE4F6D8FD75813602000E52
:1000F500BB010CE58229F582E5833AF583E02250C0
:1001050006E92582F8E622BBFE06E92582F8E22209
:0D011500E58229F582E5833AF583E4932223
:10012200EF8DF0A4A8F0CF8CF0A428CE8DF0A42EF1
:02013200FE22AB
:10013400BC000BBE0029EF8DF084FFADF022E4CCAF
:10014400F875F008EF2FFFEE33FEEC33FCEE9DEC78
:10015400984005FCEE9DFE0FD5F0E9E4CEFD22EDBE
:10016400F8F5F0EE8420D21CFEADF075F008EF2F08
:10017400FFED33FD4007985006D5F0F222C398FDF9
:050184000FD5F0EA2296
:00000001FF
