:10088C001209387D077F0512094F7D39E4FF1209E3
:10089C007FE4FD7F0212094F7D037F0312094FE4B1
:1008AC00FD7F0412094FE4FD7F0512094F7D047F83
:1008BC000612094FE4FD7F0712094F7D047F0112D8
:0408CC00094F80F759
:03000B000208FAEE
:0408FA00C0E0C0D0CA
:1008FE00758A66758CFC051CE51C7002051BC3947D
:0D090E00E8E51B94034006751B00751C00F6
:05091B00D0D0D0E03255
:100920000B083F065B4F666D7D077F6F8008131CC9
:070930001814100C0804006C
:0F094F0074122FF8E6F5A074082DF8E6F5802253
:0B095E0074122FF8E6F5A0851280222D
:0B09690074122FF8E6F5A07580402204
:0B09740074122FF8E6F5A07580082231
:0A097F0074122FF8E6F5A08D802217
:1008D0007D39E4FF12097FE4FD7F0212094F7D0399
:1008E0000F12094FE4FD0F12094F0F12094F7D043B
:0A08F0000F12094FE4FD0F02094F3B
:100938005389F0438901758A66758CFCC28DD28C07
:07094800D2A9D2AFC2B9220F
:03000000020800F3
:0C080000787FE4F6D8FD75811C020847E3
:10080C0002088CE493A3F8E493A34003F68001F26E
:10081C0008DFF48029E493A3F85407240CC8C333ED
:10082C00C4540F4420C8834004F456800146F6DFBC
:10083C00E4800B0102040810204080900920E47E23
:10084C00019360BCA3FF543F30E509541FFEE493B1
:10085C00A360010ECF54C025E060A840B8E493A378
:10086C00FAE493A3F8E493A3C8C582C8CAC583CAA3
:10087C00F0A3C8C582C8CAC583CADFE9DEE780BE5B
:0109370000BF
:00000001FF
