:10088C007D39E4FF120905E4FD7F021208D57D03D2
:10089C007F031208D5E4FD7F041208D5E4FD7F0523
:1008AC001208D57D047F061208D5E4FD7F070208E7
:0108BC00D566
:09090F007D077F051208D580FE6A
:1008BD000B083F065B4F666D7D077F6F8008131C2D
:0708CD001814100C080400D0
:0F08D50074122FF8E6F5A074082DF8E6F58022CE
:0B08E40074122FF8E6F5A085128022A8
:0B08EF0074122FF8E6F5A0758040227F
:0B08FA0074122FF8E6F5A075800822AC
:0A09050074122FF8E6F5A08D802291
:03000000020800F3
:0C080000787FE4F6D8FD75811A020847E5
:10080C0002090FE493A3F8E493A34003F68001F2EA
:10081C0008DFF48029E493A3F85407240CC8C333ED
:10082C00C4540F4420C8834004F456800146F6DFBC
:10083C00E4800B01020408102040809008BDE47E87
:10084C00019360BCA3FF543F30E509541FFEE493B1
:10085C00A360010ECF54C025E060A840B8E493A378
:10086C00FAE493A3F8E493A3C8C582C8CAC583CAA3
:10087C00F0A3C8C582C8CAC583CADFE9DEE780BE5B
:0108D4000023
:00000001FF
