:0308DC00011D00FB
:10090E001208F712088C1200008F1DE51DB402F6B6
:02091E0080F463
:03000B000208B632
:0408B600C0E0C0D00E
:1008BA00758A66758CFC051CE51C7002051BC394C1
:0D08CA00E8E51B94034006751B00751C003B
:0508D700D0D0D0E0329A
:1008DF000B083F065B4F666D7D077F6F8008131C0B
:0708EF001814100C080400AE
:0F09200074122FF8E6F5A074082DF8E6F5802282
:0B092F0074122FF8E6F5A0851280225C
:0B093A0074122FF8E6F5A07580402233
:0B09450074122FF8E6F5A07580082260
:0A09500074122FF8E6F5A08D802246
:10088C007D397F01120950E4FD7F031209207D039D
:10089C000F120920E4FD0F1209200F1209207D040C
:0A08AC000F120920E4FD0F020920DD
:1008F7005389F0438901758A66758CFCC28DD28C49
:07090700D2A9D2AFC2B92250
:03000000020800F3
:0C080000787FE4F6D8FD75811D020847E2
:10080C0002090EE493A3F8E493A34003F68001F2EB
:10081C0008DFF48029E493A3F85407240CC8C333ED
:10082C00C4540F4420C8834004F456800146F6DFBC
:10083C00E4800B01020408102040809008DCE47E68
:10084C00019360BCA3FF543F30E509541FFEE493B1
:10085C00A360010ECF54C025E060A840B8E493A378
:10086C00FAE493A3F8E493A3C8C582C8CAC583CAA3
:10087C00F0A3C8C582C8CAC583CADFE9DEE780BE5B
:0108F6000001
:00000001FF
