:10118800543A0054483A00544C3A004F563A4800F2
:0A1198004F563A4C002020202000A2
:100C5F00E4FF120FEB8F0F7F01120FEB8F0AD3E51B
:100C6F000F648094FD5016C3E50A64809449400DCB
:100C7F00D3E50A6480F8E50F6480985006750F1469
:100C8F00750A0F1212337FE87E031211FB12121036
:100C9F007BFF7A1179887D017F011210947BFF7A97
:100CAF0011798B7D017F021210947BFF7A11798F5E
:100CBF007D097F02121094E50FFB3395E0FA751949
:100CCF00037D047F02120ED4E50AFB3395E0FA751B
:100CDF0019037D0C7F02120ED41211A21212868FED
:100CEF001012123312101B8F0E8E0D8D0C8C0BE405
:100CFF00FFFEFDFCAB0EAA0DA90CA80B1209A65006
:100D0F001E7B2D7D037F01121262AF0EAE0DAD0C57
:100D1F00AC0B120A1F8F148E138D128C1180157B42
:100D2F002B7D037F01121262850E14850D13850C26
:100D3F0012850B11AF14AE13AD12AC11120A6EABBC
:100D4F0007AA067519037D047F011211327B2E7DD0
:100D5F00077F01121262E4FFFE7DC87C42AB14AA2A
:100D6F0013A912A811120800120A6EE47B64FAF993
:100D7F00F8120BBF7519027D087F01121132E510B1
:100D8F007003020E2CB4010E050FD3E50F6480948F
:100D9F00FD4003750F7DE510B40211150FD3E50A61
:100DAF006480F8E50F6480985002050FE510B403D6
:100DBF0011050AC3E50F6480F8E50A6480984002C4
:100DCF00150AE510B4040E150AC3E50A64809449A8
:100DDF005003750AC9E50FFB3395E0FA7519037DCA
:100DEF00047F02120ED4E50AFB3395E0FA7519035E
:100DFF007D0C7F02120ED4E50FFD3395E0FCE4FF6E
:100E0F001210707F057E001211FBE50AFD3395E08D
:100E1F00FC7F011210707F057E001211FBAC0FECEE
:100E2F00120A3AAB0EAA0DA90CA80B1209A6600A5A
:100E3F0040087BFF7A1179938019AC0AEC120A3AB9
:100E4F00AB0EAA0DA90CA80B1209A650107BFF7AA6
:100E5F001179987D0D7F01121094020CEB7BFF7AB4
:0D0E6F0011799D7D0D7F01121094020CEB96
:03000B00020E7C66
:100E7C00C0E0C0F0C083C082C0D075D000C000C03C
:0D0E8C0001C002C003C004C005C006C007BD
:100E9900758CFC758A180509E50970020508C39463
:100EA90014E50894004009750800750900120F47F8
:100EB900D007D006D005D004D003D002D001D0008D
:0B0EC900D0D0D082D083D0F0D0E03237
:1011FB00EF1FAC0670011E4C600A7D027CEFDCFE1B
:04120B00DDFC80EC9A
:01120F0022BC
:0D1233001210F67FCC12114F7F4402114FB4
:10101B001210F67FCC12114F7FBE12114F1210B768
:10102B008F151210B7EFFEE515FFFDAC06EC120A9B
:0B103B0035E4FBFA79807841120909C6
:011046002287
:06122400C2A58F80D2A7D5
:08122A007F027EEFDEFEDFFC17
:011232002299
:0A125800C2A6121224C2A702122A35
:1010D800CFCDCFCECCCE120B2E7C007D0A120B2E9C
:0410E800ED2430FFC4
:0A10EC00D2A6121224C2A702122A93
:1011B900AE07BE0104ED148006BE0209ED243F44CA
:0611C90080FF1212582203
:101210007F381212587F0C1212587F061212587F14
:04122000010212585D
:0A126200AC031211B9AF040210EC46
:061094008B158A16891776
:10109A001211B9E4FDAB15AA16A9178D8275830042
:0C10AA00120AEFFF60061210EC0D80E946
:0110B6002217
:0C0FB8007F0AEA24FFFDE434FFFC7E0009
:080FC4008E1C8F1D8C1E8D1F79
:100FCC007F017E00E4FBEBC3951FE51E6480F87483
:0E0FDC008098500AAC1CAD1D120B1C0B80E857
:010FEA0022E4
:041132008A178B1875
:101136001211B9AA19EAD39400400D120FB8AC17D0
:08114600AD181210D81A80ED5B
:01114E00227E
:100ED4001211B9C3EA64809480400B7F2B1210EC8A
:100EE4008A1A8B1B800E7F2D1210ECC3E49BF51B1A
:100EF400E49AF51AAA19EAD39400400D120FB8AC7B
:090F04001AAD1B1210D81A80ED81
:010F0D0022C1
:040F0E008A228B2385
:100F12001211B9AA24EAD3940040297F10120FBA01
:100F2200AC22AD23CFCDCFCECCCE120B2EEF540FB1
:100F3200FEC3940AEE5004243080022437FF1210BC
:040F4200EC1A80D154
:010F46002288
:040F80008A278B2809
:100F84001211B9AA29EAD394004028EA24FFFDE407
:100F940034FFFC7F027E00120FC4AC27AD28CFCDF6
:100FA400CFCECCCE120B2EEF54012430FF1210EC16
:030FB4001A80D2CE
:010FB7002217
:1010F600C2AFD2B7C2B77FF7DFFED2B77F20DFFE1F
:0D110600A2B7E433FE7FF7DFFED2AFAF06E5
:0111130022B9
:1011CF00C2AFC2B77E04DEFEEF24FF92B77E18DEF9
:0511DF00FED2B7D2AF03
:0111E40022E8
:10116C00C2AFC2B77F02DFFED2B77F02DFFEA2B7EB
:0B117C00E433FE7F18DFFED2AFAF06A9
:011187002245
:02114F00AD07EA
:10115100C2AFE4FC7401A804088002C333D8FC5D6B
:0A116100FF1211CF0CBC08ECD2AF56
:01116B002261
:1010B700E4FDC2AFFC12116CEF600D7401A80408C7
:1010C7008002C333D8FC42050CBC08E9D2AFAF0598
:0110D70022F6
:101070008F158C168D171212767FA0121047121240
:1010800040AF15121047121240AF1712104712123C
:041090004002127F89
:020FEB008F1560
:100FED001212767FA0121047121240AF1512104741
:100FFD001212401212767FA11210471212401211D6
:0D100D00148F167F0112126C12127FAF16A5
:01101A0022B3
:09127600D2A0D2A1C2A0C2A122A3
:07127F00C2A0D2A1D2A022FF
:02104700AD07F3
:10104900E4FB74807E00A803088006CEA2E713CED5
:1010590013D8F8FFEDF582EF558224FF92A0D2A1B3
:06106900C2A10BBB08DC74
:01106F00225E
:10111400E4FFD2A0FED2A130A00D7480A8060880FE
:0D11240002C313D8FC4207C2A10EBE08E8AA
:01113100229B
:0A126C00EF24FF92A0D2A1C2A1223C
:0B124000D2A0D2A1A2A0E433FFC2A103
:01124B002280
:05128600E4AF2CF52C83
:01128B002240
:1011E500E4FF20B1010F20B0027F0220B2027F038D
:0511F50020B3027F049D
:0111FA0022D2
:100F4700852A2B1211E58F2AE52BB40107E52A70B4
:100F570003752C01E52BB40207E52A7003752C02F3
:100F6700E52BB40307E52A7003752C03E52BB404BE
:080F770007E52A7003752C0444
:010F7F00224F
:1011A2005389F0438901758A18758CFCC28DD28CE3
:0711B200D2A9D2AFC2B9229D
:10080000EC4D6011E8497017ED33EC3304600DE4F2
:10081000FCFFFEFD22E933E8330470F8020ADA1225
:100820000AA558046009E4CC248150062850090226
:100830000AE4284003020AE1C0E0EB4A7044B980B0
:1008400006D0E0FB020AD0EF4E701CBD8008EBFF23
:10085000EAFEE9FD80EBE98DF0A4FEE5F00208E98F
:10086000E9CDF9EAFEEBFFEF89F0A4FCE5F0CE89D3
:10087000F0A42EFFE435F0CD89F0A42DFEE435F090
:100880008067EF4E7005BD80D780C3EF8BF0A4ACBE
:10089000F0EE8BF0A42CFCE435F0F8EF8AF0A42CF9
:1008A000E5F038FCE433CB8DF0A42CFCE5F03BF80C
:1008B000EE8AF0A42CFCE5F038F8E433CF89F0A4FC
:1008C0002CFCE5F038CF3400CE89F0A42FFFE5F002
:1008D0003EFEE433C98DF0A42EFEE5F039CD8AF05A
:1008E000A42FFFE5F03EFEE43DFD33D0E0FB5007D2
:1008F0000BBB000F020AE4EC2CFCEF33FFEE33FEDF
:06090000ED33FD020ABC0C
:10090600020AE4EC5D046005E859047003020ADAA1
:10091600120AA5580460F6EC4860F2EC7004FDFE7D
:10092600FF22C860DB2481C85009C39860025006C4
:10093600020AE19850CAF582E9294B4A7005AB8252
:10094600020AD075F0007C1A7880C3EF9BEE9AED10
:1009560099400DC3EF9BFFEE9AFEED99FDE842F03C
:10096600DC23ACF0D0E0FFD0E0FED0E0FDAB82208F
:10097600E7101BEB60BAEC2CFCEF33FFEE33FEED19
:1009860033FD020ABCE803F830E705C0F075F00055
:10099600EF2FFFEE33FEED33FD40B830E7C280AAFD
:1009A60074F8CC6480CCC86480C8F58204604FC3F8
:1009B600EB9FF5F0EA9E42F0E99D42F0E89C45F097
:1009C600603C501DE5825FFFE582D313CB5BCBF421
:1009D6002B5582FB50280ABA002409B9002008804A
:1009E6001DE5825BFBE582D313CF5FCFF4C3132FE4
:1009F6005582FF50090EBE00050DBD00010CC3EB6C
:100A06009FF5F0EA9E42F0E99D42F0E89C45F060D1
:090A160007CC4820E701B3EC22F3
:100A1F00ED33EC33600A047003BD8004ECB2E7FCE5
:010A2F0022A4
:100A300075F020800E75F010800575F0087D007E41
:100A4000007F003392D530D503120C51EC334010A7
:100A5000EF33FFEE33FEED33FDEC33FCD5F0ED224A
:0E0A6000E5F0247EA2D513CC92E7CDCEFF2286
:100A6E00EDD2E7CD33EC3392D524814006E4FFFE80
:100A7E00FDFC22FCE4CFCECDCC24E0501174FF80DF
:100A8E00EDC3CC13CCCD13CDCE13CECF13CF04707C
:070A9E00F030D5DE020C511F
:100AA500E9D2E7C933E833F892D5EDD2E7CD33EC97
:070AB50033FC5002B2D52210
:100ABC00EC30E7100FBF000C0EBE00080DBD00049B
:100ACC000BEB6014A2D5EB13FCED92E7FD2274FF47
:100ADC00FCFDFEFF22E480F8A2D574FF13FC7D80A0
:030AEC00E480EFB4
:0300000002124C9D
:0C124C00787FE4F6D8FD75812C020C5F61
:100AEF00BB010CE58229F582E5833AF583E02250BC
:100AFF0006E92582F8E622BBFE06E92582F8E22206
:0D0B0F00E58229F582E5833AF583E493221F
:100B1C00EF8DF0A4A8F0CF8CF0A428CE8DF0A42EED
:020B2C00FE22A7
:100B2E00BC000BBE0029EF8DF084FFADF022E4CCAB
:100B3E00F875F008EF2FFFEE33FEEC33FCEE9DEC74
:100B4E00984005FCEE9DFE0FD5F0E9E4CEFD22EDBA
:100B5E00F8F5F0EE8420D21CFEADF075F008EF2F04
:100B6E00FFED33FD4007985006D5F0F222C398FDF5
:050B7E000FD5F0EA2292
:100B830075F008758200EF2FFFEE33FECD33CDCC29
:100B930033CCC58233C5829BED9AEC99E5829840AC
:100BA3000CF582EE9BFEED9AFDEC99FC0FD5F0D689
:100BB300E4CEFBE4CDFAE4CCF9A88222B800C1B9B3
:100BC3000059BA002DEC8BF084CFCECDFCE5F0CBF1
:100BD300F97818EF2FFFEE33FEED33FDEC33FCEB2A
:100BE30033FB10D703994004EB99FB0FD8E5E4F9E5
:100BF300FA227818EF2FFFEE33FEED33FDEC33FCD2
:100C0300C933C910D7059BE99A4007EC9BFCE99AC5
:100C1300F90FD8E0E4C9FAE4CCFB2275F010EF2F0A
:100C2300FFEE33FEED33FDCC33CCC833C810D7070A
:100C33009BEC9AE899400AED9BFDEC9AFCE899F845
:0E0C43000FD5F0DAE4CDFBE4CCFAE4C8F922D8
:0E0C5100C3E49FFFE49EFEE49DFDE49CFC22B4
:00000001FF
