:1000FD001201E67512321201401200038F13E5133F
:10010D00640170230515531503E5157002F512E50D
:10011D0015B40103751232E515B4020375124BE5E2
:10012D0015B40303751264E515FD7C007F01120003
:03013D009A80C3E2
:03000B0002017976
:10017900C0E0C0F0C0D0758CFF758A9C0514E514E9
:1001890075F0648485F014E514C395125004D29077
:0B0199008002C290D0D0D0F0D0E03245
:1001D100EF1FAC0670011E4C600A7D027CEFDCFE55
:0401E100DDFC80ECD5
:0101E50022F7
:05000300E4AF18F51840
:0100080022D5
:1001BB00E4FF20B1010F20B0027F0220B2027F03C7
:0501CB0020B3027F04D7
:0101D000220C
:100140008516171201BB8F16E517B40107E5167067
:1001500003751801E517B40207E516700375180258
:10016000E517B40307E5167003751803E517B40423
:0801700007E516700375180481
:010178002264
:0C01FA000A083F065B4F666D7D077F6FB3
:10009A00EF14B4080050549000AF75F003A4C58360
:1000AA0025F0C583730200C70200CB0200CF02000D
:1000BA00D30200D70200DF0200E70200EFD2A480D9
:1000CA000ED2A48012D2A48016D2A4801AC2A4D2BC
:1000DA00A3D2A28016C2A4D2A3C2A2800EC2A4C274
:1000EA00A3D2A28006C2A4C2A3C2A274082DF8E6B3
:0300FA00F580226C
:1001E6005389F0758A9C758CFFC28DD28CD2A9D2A8
:0401F600AFC2B922B9
:1001A4005389F0438901C28DD28C758CFC758A18F1
:0701B400D2A9D2AFC2B922AB
:0300000002000EED
:0C000E00787FE4F6D8FD758118020055DB
:10001A000200FDE493A3F8E493A34003F68001F2FF
:10002A0008DFF48029E493A3F85407240CC8C333E7
:10003A00C4540F4420C8834004F456800146F6DFB6
:10004A00E4800B01020408102040809001FAE47E4B
:10005A00019360BCA3FF543F30E509541FFEE493AB
:10006A00A360010ECF54C025E060A840B8E493A372
:10007A00FAE493A3F8E493A3C8C582C8CAC583CA9D
:10008A00F0A3C8C582C8CAC583CADFE9DEE780BE55
:0102060000F7
:00000001FF
